:020000040000FA
:040000003CEF7CF065
:10F75400800F810F820F830F840F890F8A0F8B0F05
:10F764008C0F8D0F920F930F940F950F960FE2F25B
:10F77400C2D2A2B2829233231303250E386E000E36
:10F78400396E6FEC7CF0230E386E000E396E6FEC20
:10F794007CF0210E386E000E396E6FEC7CF01F0E7B
:10F7A400386E000E396E6FEC7CF01200250E386E48
:10F7B400000E396E89EC7CF0230E386E000E396E23
:10F7C40089EC7CF0210E386E000E396E89EC7CF0E9
:10F7D4001F0E386E000E396E89EC7CF01200250E77
:10F7E400386E000E396EA3EC7CF0230E386E000EDA
:10F7F400396EA3EC7CF0210E386E000E396EA3EC4A
:10F804007CF01F0E386E000E396EA3EC7CF01200F3
:10F81400250E386E000E396E6FEC7CF0230E386EB8
:10F82400000E396E89EC7CF0210E386E000E396EB4
:10F8340089EC7CF01F0E386E000E396E6FEC7CF094
:10F844001200250E386E000E396E89EC7CF0230E02
:10F85400386E000E396E6FEC7CF0210E386E000E9F
:10F86400396E6FEC7CF01F0E386E000E396E89EC29
:10F874007CF01200540EF66EF70EF76E000EF86E62
:10F8840000EE01F010EE2AF00900F5CFEEFFE5508E
:10F89400E150FAE13E6A3D6A3C6A3B6A000EF86E4A
:10F8A400000112EF7FF038503910D8A45CEF7CF0DF
:10F8B4005EEF7CF060EF7CF06EEF7CF038C034F0EB
:10F8C40039C035F0B0EC7DF0010E3824346E000EF2
:10F8D4003920356EB0EC7DF0120038503910D8A4C0
:10F8E40076EF7CF078EF7CF07AEF7CF088EF7CF0B8
:10F8F40038C034F039C035F030EC7DF0010E3824D6
:10F90400346E000E3920356E70EC7DF012003850E4
:10F914003910D8A490EF7CF092EF7CF094EF7CF057
:10F92400A2EF7CF038C034F039C035F070EC7DF0D3
:10F93400010E3824346E000E3920356E30EC7DF023
:10F94400120038503910D8A4AAEF7CF0ACEF7CF048
:10F95400AEEF7CF0BCEF7CF038C034F039C035F049
:10F9640030EC7DF0010E3824346E000E3920356EF3
:10F9740030EC7DF01200336E080E2B60C4EF7CF087
:10F98400C6EF7CF0F4EF7CF02C502D10D8A4CDEF12
:10F994007CF0CFEF7CF0D1EF7CF0F4EF7CF02BC067
:10F9A4002EF03350020D010EF324D96E000EF42014
:10F9B400DA6EDECF2FF0DDCF30F02FC0D9FF30C0AC
:10F9C400DAFFDF50316E2E2AEAEF7CF0D890313224
:10F9D4002E2EE8EF7CF03150010B2CC0D9FF2DC046
:10F9E400DAFFDF6E120034503510D8B4FCEF7CF02F
:10F9F400FEEF7CF02FEF7DF034C0D9FF35C0DAFF85
:10FA0400DF500F0B366E050E36600BEF7DF00DEFF9
:10FA14007DF02FEF7DF034C0D9FF35C0DAFFDF3839
:10FA2400070B366E070E36641AEF7DF01CEF7DF07F
:10FA34001EEF7DF02FEF7DF034C0D9FF35C0DAFF23
:10FA4400DF38070B2B6E010E2C6E34C0D9FF35C086
:10FA5400DAFFDF500F0B4AEC7EF012003450351001
:10FA6400D8B437EF7DF039EF7DF06FEF7DF034C01F
:10FA7400D9FF35C0DAFFDF500F0B366E050E366046
:10FA840046EF7DF048EF7DF06FEF7DF034C0D9FF95
:10FA940035C0DAFFDF38070B366E070E366455EFD4
:10FAA4007DF057EF7DF059EF7DF06FEF7DF034C0BE
:10FAB400D9FF35C0DAFFDF38070B2B6E000E2C6E32
:10FAC40034C0D9FF35C0DAFFDF500F0BAEEC7EF047
:10FAD40034C0D9FF35C0DAFFDF8E12003450351040
:10FAE400D8B477EF7DF079EF7DF0AFEF7DF034C0DF
:10FAF400D9FF35C0DAFFDF500F0B366E050E3660C6
:10FB040086EF7DF088EF7DF0AFEF7DF034C0D9FF54
:10FB140035C0DAFFDF38070B366E070E366495EF13
:10FB24007DF097EF7DF099EF7DF0AFEF7DF034C07D
:10FB3400D9FF35C0DAFFDF38070B2B6E010E2C6EB0
:10FB440034C0D9FF35C0DAFFDF500F0BAEEC7EF0C6
:10FB540034C0D9FF35C0DAFFDF9E120034503510AF
:10FB6400D8B4B7EF7DF0B9EF7DF0FBEF7DF034C092
:10FB7400D9FF35C0DAFFDF500F0B366E050E366045
:10FB8400C6EF7DF0C8EF7DF0FBEF7DF034C0D9FF08
:10FB940035C0DAFFDF38070B366E070E3664D5EF53
:10FBA4007DF0D7EF7DF0D9EF7DF0FBEF7DF034C031
:10FBB400D9FF35C0DAFFDF38070B2B6E000E2C6E31
:10FBC40034C0D9FF35C0DAFFDF500F0B4AEC7EF0AA
:10FBD40034C0D9FF35C0DAFFDF38070B2B6E000EB7
:10FBE4002C6E34C0D9FF35C0DAFFDF500F0BAEECFA
:10FBF4007EF0120034503510D8B403EF7EF005EFD8
:10FC04007EF049EF7EF034C0D9FF35C0DAFFDF5013
:10FC14000F0B386E050E386012EF7EF014EF7EF095
:10FC240049EF7EF034C0D9FF35C0DAFFDF38070B67
:10FC3400386E070E386421EF7EF023EF7EF025EF57
:10FC44007EF049EF7EF034C0D9FF35C0DAFFDF38EB
:10FC5400070B2B6E36C02CF037C02DF034C0D9FF03
:10FC640035C0DAFFDF500F0BBDEC7CF036C0D9FF96
:10FC740037C0DAFFDF50386E34C0D9FF35C0DAFF41
:10FC840038323832DF5038187F0B3818DF6E1200E4
:10FC9400336E080E2B6051EF7EF053EF7EF0ADEF24
:10FCA4007EF098EF7EF02BC02DF0010E2E6E2D2AE3
:10FCB4005EEF7EF0D8902E362D2E5CEF7EF02E5027
:10FCC400FF0A2F6E3350020D150EF324D96E000E69
:10FCD400F420DA6EDECF30F0DDCF31F030C0D9FF62
:10FCE40031C0DAFF2F50DF16ADEF7EF02BC02DF0C0
:10FCF400010E2E6E2D2A81EF7EF0D8902E362D2EF9
:10FD04007FEF7EF03350020D150EF324D96E000EF2
:10FD1400F420DA6EDECF2FF0DDCF30F02FC0D9FF24
:10FD240030C0DAFF2E50DF12ADEF7EF02C502D6E76
:10FD34002E6A2E50000AD8B4A2EF7EF0ADEF7EF00A
:10FD44002D50000AD8B455EF7EF0010AD8B478EFEC
:10FD54007EF0ADEF7EF01200336E080E2B60B5EF2F
:10FD64007EF0B7EF7EF011EF7FF0FCEF7EF02BC05A
:10FD74002DF0010E2E6E2D2AC2EF7EF0D8902E3675
:10FD84002D2EC0EF7EF02E50FF0A2F6E3350020D41
:10FD94000B0EF324D96E000EF420DA6EDECF30F0B1
:10FDA400DDCF31F030C0D9FF31C0DAFF2F50DF167C
:10FDB40011EF7FF02BC02DF0010E2E6E2D2AE5EFF2
:10FDC4007EF0D8902E362D2EE3EF7EF03350020DC8
:10FDD4000B0EF324D96E000EF420DA6EDECF2FF072
:10FDE400DDCF30F02FC0D9FF30C0DAFF2E50DF1244
:10FDF40011EF7FF02C502D6E2E6A2E50000AD8B4CD
:10FE040006EF7FF011EF7FF02D50000AD8B4B9EF60
:10FE14007EF0010AD8B4DCEF7EF011EF7FF012001F
:10FE2400250E386E000E396E55EC7CF0230E386EBC
:10FE3400000E396E55EC7CF0210E386E000E396ED2
:10FE440055EC7CF01F0E386E000E396E55EC7CF0CC
:10FE54002A0E346E000E356EF5EC7CF0290E346EED
:10FE6400000E356EF5EC7CF0280E346E000E356E07
:10FE7400F5EC7CF0270E346E000E356EF5EC7CF05C
:10FE84002A0E346E000E356E3E0E366E000E376E40
:10FE9400FCEC7DF0290E346E000E356E3D0E366E90
:10FEA400000E376EFCEC7DF0280E346E000E356EBD
:10FEB4003C0E366E000E376EFCEC7DF0270E346E71
:10FEC400000E356E3B0E366E000E376EFCEC7DF088
:10FED4003E04D8A470EF7FF072EF7FF08EEF7FF0D6
:10FEE4003D50D8A478EF7FF07AEF7FF08EEF7FF06B
:10FEF4003C50D8A480EF7FF082EF7FF08EEF7FF04C
:10FF04003B50D8A488EF7FF08AEF7FF08EEF7FF02C
:10FF1400D8EC7BF042EF7FF03E50D8A494EF7FF012
:10FF240096EF7FF0B2EF7FF03D04D8A49CEF7FF012
:10FF34009EEF7FF0B2EF7FF03C50D8A4A4EF7FF0A7
:10FF4400A6EF7FF0B2EF7FF03B50D8A4ACEF7FF088
:10FF5400AEEF7FF0B2EF7FF0BFEC7BF042EF7FF0CB
:10FF64003E50D8A4B8EF7FF0BAEF7FF0D6EF7FF021
:10FF74003D50D8A4C0EF7FF0C2EF7FF0D6EF7FF002
:10FF84003C04D8A4C8EF7FF0CAEF7FF0D6EF7FF02F
:10FF94003B50D8A4D0EF7FF0D2EF7FF0D6EF7FF0C4
:10FFA40023EC7CF042EF7FF03E50D8A4DCEF7FF0EE
:10FFB400DEEF7FF0FAEF7FF03D50D8A4E4EF7FF05E
:10FFC400E6EF7FF0FAEF7FF03C50D8A4ECEF7FF03F
:10FFD400EEEF7FF0FAEF7FF03B04D8A4F4EF7FF06C
:10FFE400F6EF7FF0FAEF7FF00AEC7CF042EF7FF05F
:0CFFF400F1EC7BF042EF7FF000EF00F03A
:020000040020DA
:08000000FFFFFFFFFFFFFFFF00
:020000040030CA
:0E000000FF071F1FFF8B85FF0FC00FE00F4093
:00000001FF
