:020000040000FA
:0400000068EF7CF039
:10F8A900800F810F820F830F840F890F8A0F8B0FAF
:10F8B9008C0F8D0F920F930F940F950F960F0212C5
:10F8C90022324252627203A90EF66EF80EF76E00EA
:10F8D9000EF86E00EE01F010EE27F00900F5CFEEFC
:10F8E900FFE550E150FAE13D6A3C6A000EF86E000E
:10F8F90001D4EF7EF0306E080E286086EF7CF08828
:10F90900EF7CF0B6EF7CF029502A10D8A48FEF7C59
:10F91900F091EF7CF093EF7CF0B6EF7CF028C02BF0
:10F92900F03050020D010EF324D96E000EF420DAE6
:10F939006EDECF2CF0DDCF2DF02CC0D9FF2DC0DA33
:10F94900FFDF502E6E2B2AACEF7CF0D8902E322B95
:10F959002EAAEF7CF02E50010B29C0D9FF2AC0DA5C
:10F96900FFDF6E120031503210D8B4BEEF7CF0C008
:10F97900EF7CF0F1EF7CF031C0D9FF32C0DAFFDF64
:10F98900500F0B336E050E3360CDEF7CF0CFEF7C5B
:10F99900F0F1EF7CF031C0D9FF32C0DAFFDF380770
:10F9A9000B336E070E3364DCEF7CF0DEEF7CF0E0A6
:10F9B900EF7CF0F1EF7CF031C0D9FF32C0DAFFDF24
:10F9C90038070B286E010E296E31C0D9FF32C0DA13
:10F9D900FFDF500F0B0CEC7EF0120031503210D8C3
:10F9E900B4F9EF7CF0FBEF7CF031EF7DF031C0D959
:10F9F900FF32C0DAFFDF500F0B336E050E3360089C
:10FA0900EF7DF00AEF7DF031EF7DF031C0D9FF32A3
:10FA1900C0DAFFDF38070B336E070E336417EF7D4B
:10FA2900F019EF7DF01BEF7DF031EF7DF031C0D99A
:10FA3900FF32C0DAFFDF38070B286E000E296E315E
:10FA4900C0D9FF32C0DAFFDF500F0B70EC7EF03106
:10FA5900C0D9FF32C0DAFFDF9E120031503210D810
:10FA6900B439EF7DF03BEF7DF071EF7DF031C0D916
:10FA7900FF32C0DAFFDF500F0B336E050E336048DB
:10FA8900EF7DF04AEF7DF071EF7DF031C0D9FF32A3
:10FA9900C0DAFFDF38070B336E070E336457EF7D8B
:10FAA900F059EF7DF05BEF7DF071EF7DF031C0D95A
:10FAB900FF32C0DAFFDF38070B286E010E296E31DD
:10FAC900C0D9FF32C0DAFFDF500F0B70EC7EF03186
:10FAD900C0D9FF32C0DAFFDF8E120031503210D8A0
:10FAE900B479EF7DF07BEF7DF0BDEF7DF031C0D9CA
:10FAF900FF32C0DAFFDF500F0B336E050E3360881B
:10FB0900EF7DF08AEF7DF0BDEF7DF031C0D9FF3296
:10FB1900C0DAFFDF38070B336E070E336497EF7DCA
:10FB2900F099EF7DF09BEF7DF0BDEF7DF031C0D90D
:10FB3900FF32C0DAFFDF38070B286E000E296E315D
:10FB4900C0D9FF32C0DAFFDF500F0B0CEC7EF03169
:10FB5900C0D9FF32C0DAFFDF38070B286E000E2943
:10FB69006E31C0D9FF32C0DAFFDF500F0B70EC7E67
:10FB7900F0120031503210D8B4C5EF7DF0C7EF7DD7
:10FB8900F00BEF7EF031C0D9FF32C0DAFFDF500F42
:10FB99000B356E050E3560D4EF7DF0D6EF7DF00B99
:10FBA900EF7EF031C0D9FF32C0DAFFDF38070B35FD
:10FBB9006E070E3564E3EF7DF0E5EF7DF0E7EF7D4D
:10FBC900F00BEF7EF031C0D9FF32C0DAFFDF380722
:10FBD9000B286E33C029F034C02AF031C0D9FF3266
:10FBE900C0DAFFDF500F0B7FEC7CF033C0D9FF3454
:10FBF900C0DAFFDF50356E31C0D9FF32C0DAFF35C8
:10FC0900323532DF5035187F0B3518DF6E12003070
:10FC19006E080E286013EF7EF015EF7EF06FEF7E11
:10FC2900F05AEF7EF028C02AF0010E2B6E2A2A2006
:10FC3900EF7EF0D8902B362A2E1EEF7EF02B50FF48
:10FC49000A2C6E3050020D150EF324D96E000EF4F5
:10FC590020DA6EDECF2DF0DDCF2EF02DC0D9FF2EAC
:10FC6900C0DAFF2C50DF166FEF7EF028C02AF001B2
:10FC79000E2B6E2A2A43EF7EF0D8902B362A2E417E
:10FC8900EF7EF03050020D150EF324D96E000EF4FC
:10FC990020DA6EDECF2CF0DDCF2DF02CC0D9FF2D70
:10FCA900C0DAFF2B50DF126FEF7EF029502A6E2B3E
:10FCB9006A2B50000AD8B464EF7EF06FEF7EF02A09
:10FCC90050000AD8B417EF7EF0010AD8B43AEF7E93
:10FCD900F06FEF7EF01200306E080E286077EF7E2D
:10FCE900F079EF7EF0D3EF7EF0BEEF7EF028C02AE8
:10FCF900F0010E2B6E2A2A84EF7EF0D8902B362A3B
:10FD09002E82EF7EF02B50FF0A2C6E3050020D0B25
:10FD19000EF324D96E000EF420DA6EDECF2DF0DD5D
:10FD2900CF2EF02DC0D9FF2EC0DAFF2C50DF16D30D
:10FD3900EF7EF028C02AF0010E2B6E2A2AA7EF7E4B
:10FD4900F0D8902B362A2EA5EF7EF03050020D0BFD
:10FD59000EF324D96E000EF420DA6EDECF2CF0DD1E
:10FD6900CF2DF02CC0D9FF2DC0DAFF2B50DF12D3D5
:10FD7900EF7EF029502A6E2B6A2B50000AD8B4C89E
:10FD8900EF7EF0D3EF7EF02A50000AD8B47BEF7EE5
:10FD9900F0010AD8B49EEF7EF0D3EF7EF01200276F
:10FDA9000E316E000E326EB7EC7CF0000E3B6E1F0A
:10FDB9000E3B24316E326A000E322272EC7DF03B2A
:10FDC9002A020E3B64EBEF7EF0EDEF7EF0DCEF7E76
:10FDD900F0EFEF7EF0270E316E000E326E3D0E33DE
:10FDE9006E000E346EBEEC7DF03D04D8A4FFEF7EAC
:10FDF900F001EF7FF023EF7FF03C50D8A407EF7FAD
:10FE0900F009EF7FF023EF7FF01F0E316E000E3205
:10FE19006E32EC7DF0060E386E130E376EAE0EE8BC
:10FE29002EFED7372EFCD7382EFAD71F0E316E008B
:10FE39000E326EF2EC7CF03C2AEFEF7EF03D04D8F6
:10FE4900A429EF7FF02BEF7FF064EF7FF03C04D81B
:10FE5900A431EF7FF033EF7FF064EF7FF0000E39CC
:10FE69006E000E396E200E316E000E326E32EC7D50
:10FE7900F0060E386E130E376EAE0EE82EFED7372B
:10FE89002EFCD7382EFAD7200E316E000E326EF2C4
:10FE9900EC7CF0060E386E130E376EAE0EE82EFEB1
:10FEA900D7372EFCD7382EFAD7392A010E39646094
:10FEB900EF7FF062EF7FF037EF7FF020EF7FF03DCB
:10FEC90004D8A46AEF7FF06CEF7FF0A6EF7FF00211
:10FED9000E3C18D8A473EF7FF075EF7FF0A6EF7F83
:10FEE900F0000E3A6E000E3A6E210E316E000E329F
:10FEF9006E32EC7DF0060E386E130E376EAE0EE8DC
:10FF09002EFED7372EFCD7382EFAD7210E316E00A8
:10FF19000E326EF2EC7CF0060E386E130E376EAEB2
:10FF29000EE82EFED7372EFCD7382EFAD73A2A02FA
:10FF39000E3A64A2EF7FF0A4EF7FF079EF7FF02013
:10FF4900EF7FF03D04D8A4ACEF7FF0AEEF7FF0D7A0
:10FF5900EF7FF0030E3C18D8A4B5EF7FF0B7EF7F21
:10FF6900F0D7EF7FF01F0E316E000E326E32EC7D4E
:10FF7900F0200E316E000E326E32EC7DF0210E3122
:10FF89006E000E326E32EC7DF03C2A030E386E8A1A
:10FF99000E376E560EE82EFED7372EFCD7382EFABE
:10FFA900D7EFEF7EF03D04D8A4DDEF7FF0DFEF7FE0
:10FFB900F0EFEF7EF0040E3C18D8A4E6EF7FF0E8EE
:10FFC900EF7FF0EFEF7EF01F0E316E000E326EF212
:10FFD900EC7CF0200E316E000E326EF2EC7CF021DA
:10FFE9000E316E000E326EF2EC7CF0000E3C6ECAE1
:07FFF900EF7FF000EF00F0C4
:020000040020DA
:08000000FFFFFFFFFFFFFFFF00
:020000040030CA
:0E000000FF071F1FFF8B85FF0FC00FE00F4093
:00000001FF
