:020000040000FA
:04000000D2EF7CF0CF
:10F93200210E326E000E336E03EC7DF01F0E326E1E
:10F94200000E336E03EC7DF01200210E326E000EBB
:10F95200336E1DEC7DF01F0E326E000E336E1DEC09
:10F962007DF01200210E326E000E336E37EC7DF008
:10F972001F0E326E000E336E37EC7DF01200800FD8
:10F98200810F820F830F840F890F8A0F8B0F8C0FC9
:10F992008D0F920F930F940F950F960FA2B2829232
:10F9A2001303800EF66EF90EF76E000EF86E00EE7F
:10F9B20001F010EE24F00900F5CFEEFFE550E15022
:10F9C200FAE1366A356A000EF86E0001DEEF7EF06B
:10F9D20032503310D8A4F0EF7CF0F2EF7CF0F4EF69
:10F9E2007CF002EF7DF032C02EF033C02FF044ECF9
:10F9F2007EF0010E32242E6E000E33202F6E44EC68
:10FA02007EF0120032503310D8A40AEF7DF00CEFD2
:10FA12007DF00EEF7DF01CEF7DF032C02EF033C092
:10FA22002FF0C4EC7DF0010E32242E6E000E332036
:10FA32002F6E04EC7EF0120032503310D8A424EF63
:10FA42007DF026EF7DF028EF7DF036EF7DF032C0BD
:10FA52002EF033C02FF004EC7EF0010E32242E6E15
:10FA6200000E33202F6EC4EC7DF0120032503310A2
:10FA7200D8A43EEF7DF040EF7DF042EF7DF050EFF5
:10FA82007DF032C02EF033C02FF0C4EC7DF0010EB9
:10FA920032242E6E000E33202F6EC4EC7DF0120045
:10FAA2002D6E080E256058EF7DF05AEF7DF088EF3D
:10FAB2007DF026502710D8A461EF7DF063EF7DF032
:10FAC20065EF7DF088EF7DF025C028F02D50020D06
:10FAD200010EF324D96E000EF420DA6EDECF29F087
:10FAE200DDCF2AF029C0D9FF2AC0DAFFDF502B6E02
:10FAF200282A7EEF7DF0D8902B32282E7CEF7DF0E5
:10FB02002B50010B26C0D9FF27C0DAFFDF6E12008F
:10FB12002E502F10D8B490EF7DF092EF7DF0C3EF0E
:10FB22007DF02EC0D9FF2FC0DAFFDF500F0B306EF1
:10FB3200050E30609FEF7DF0A1EF7DF0C3EF7DF009
:10FB42002EC0D9FF2FC0DAFFDF38070B306E070E49
:10FB52003064AEEF7DF0B0EF7DF0B2EF7DF0C3EF39
:10FB62007DF02EC0D9FF2FC0DAFFDF38070B256EDC
:10FB7200010E266E2EC0D9FF2FC0DAFFDF500F0B09
:10FB820038EC7FF012002E502F10D8B4CBEF7DF05E
:10FB9200CDEF7DF003EF7EF02EC0D9FF2FC0DAFF4C
:10FBA200DF500F0B306E050E3060DAEF7DF0DCEFC8
:10FBB2007DF003EF7EF02EC0D9FF2FC0DAFFDF38D1
:10FBC200070B306E070E3064E9EF7DF0EBEF7DF04E
:10FBD200EDEF7DF003EF7EF02EC0D9FF2FC0DAFFEC
:10FBE200DF38070B256E000E266E2EC0D9FF2FC000
:10FBF200DAFFDF500F0B9CEC7FF02EC0D9FF2FC035
:10FC0200DAFFDF8E12002E502F10D8B40BEF7EF0E9
:10FC12000DEF7EF043EF7EF02EC0D9FF2FC0DAFF4A
:10FC2200DF500F0B306E050E30601AEF7EF01CEFC6
:10FC32007EF043EF7EF02EC0D9FF2FC0DAFFDF380F
:10FC4200070B306E070E306429EF7EF02BEF7EF04B
:10FC52002DEF7EF043EF7EF02EC0D9FF2FC0DAFFEA
:10FC6200DF38070B256E010E266E2EC0D9FF2FC07E
:10FC7200DAFFDF500F0B9CEC7FF02EC0D9FF2FC0B4
:10FC8200DAFFDF9E12002E502F10D8B44BEF7EF019
:10FC92004DEF7EF08FEF7EF02EC0D9FF2FC0DAFF3E
:10FCA200DF500F0B306E050E30605AEF7EF05CEFC6
:10FCB2007EF08FEF7EF02EC0D9FF2FC0DAFFDF3843
:10FCC200070B306E070E306469EF7EF06BEF7EF04B
:10FCD2006DEF7EF08FEF7EF02EC0D9FF2FC0DAFFDE
:10FCE200DF38070B256E000E266E2EC0D9FF2FC0FF
:10FCF200DAFFDF500F0B38EC7FF02EC0D9FF2FC098
:10FD0200DAFFDF38070B256E000E266E2EC0D9FFF4
:10FD12002FC0DAFFDF500F0B9CEC7FF012002E5049
:10FD22002F10D8B497EF7EF099EF7EF0DDEF7EF0E2
:10FD32002EC0D9FF2FC0DAFFDF500F0B326E050E37
:10FD42003260A6EF7EF0A8EF7EF0DDEF7EF02EC0EF
:10FD5200D9FF2FC0DAFFDF38070B326E070E32648D
:10FD6200B5EF7EF0B7EF7EF0B9EF7EF0DDEF7EF01B
:10FD72002EC0D9FF2FC0DAFFDF38070B256E30C047
:10FD820026F031C027F02EC0D9FF2FC0DAFFDF5096
:10FD92000F0B51EC7DF030C0D9FF31C0DAFFDF50DC
:10FDA200326E2EC0D9FF2FC0DAFF32323232DF502C
:10FDB20032187F0B3218DF6E1200210E326E000EE7
:10FDC200336EE9EC7CF01F0E326E000E336EE9ECFE
:10FDD2007CF0240E2E6E000E2F6E89EC7DF0230E29
:10FDE2002E6E000E2F6E89EC7DF0240E2E6E000E0C
:10FDF2002F6E360E306E000E316E90EC7EF0230EBA
:10FE02002E6E000E2F6E350E306E000E316E90EC9F
:10FE12007EF03604D8A410EF7FF012EF7FF01EEFD1
:10FE22007FF03550D8A418EF7FF01AEF7FF01EEF65
:10FE32007FF0A6EC7CF0F6EF7EF03504D8A424EF38
:10FE42007FF026EF7FF032EF7FF03650D8A42CEF10
:10FE52007FF02EEF7FF032EF7FF099EC7CF0F6EF3F
:10FE62007EF0B3EC7CF0F6EF7EF000EF00F02D6E4A
:10FE7200080E25603FEF7FF041EF7FF09BEF7FF0B0
:10FE820086EF7FF025C027F0010E286E272A4CEF5F
:10FE92007FF0D8902836272E4AEF7FF02850FF0AAD
:10FEA200296E2D50020D150EF324D96E000EF4208A
:10FEB200DA6EDECF2AF0DDCF2BF02AC0D9FF2BC0BD
:10FEC200DAFF2950DF169BEF7FF025C027F0010EE5
:10FED200286E272A6FEF7FF0D8902836272E6DEFF5
:10FEE2007FF02D50020D150EF324D96E000EF42072
:10FEF200DA6EDECF29F0DDCF2AF029C0D9FF2AC081
:10FF0200DAFF2850DF129BEF7FF02650276E286A17
:10FF12002850000AD8B490EF7FF09BEF7FF0275073
:10FF2200000AD8B443EF7FF0010AD8B466EF7FF03D
:10FF32009BEF7FF012002D6E080E2560A3EF7FF07D
:10FF4200A5EF7FF0FFEF7FF0EAEF7FF025C027F00B
:10FF5200010E286E272AB0EF7FF0D8902836272E80
:10FF6200AEEF7FF02850FF0A296E2D50020D0B0EC6
:10FF7200F324D96E000EF420DA6EDECF2AF0DDCF44
:10FF82002BF02AC0D9FF2BC0DAFF2950DF16FFEF72
:10FF92007FF025C027F0010E286E272AD3EF7FF0CD
:10FFA200D8902836272ED1EF7FF02D50020D0B0E60
:10FFB200F324D96E000EF420DA6EDECF29F0DDCF05
:10FFC2002AF029C0D9FF2AC0DAFF2850DF12FFEF3A
:10FFD2007FF02650276E286A2850000AD8B4F4EF22
:10FFE2007FF0FFEF7FF02750000AD8B4A7EF7FF031
:0EFFF200010AD8B4CAEF7FF0FFEF7FF01200D3
:020000040020DA
:08000000FFFFFFFFFFFFFFFF00
:020000040030CA
:0E000000FF071F1FFF8B85FF0FC00FE00F4093
:00000001FF
