:020000040000FA
:040000003DEF0DF0D3
:10100000001F030D11011F00001F181611101F00F3
:10101000003F3F3F3F3F3F3F001C1C1C1C1C1C1C53
:101020000018181818181818001F150E04040404C6
:101030000006150D060D1506000E0E1F1F1F1F1FA3
:10104000000E0A1F1F1F1F1F000E0A111F1F1F1F48
:10105000000E0A11111F1F1F000E0A1111111F1F70
:10106000000E0A111111111F00202E2E2041484D93
:101070004544204B48414C4544202E2E0025690014
:01108000006F
:1010820065EC0DF0480E176E000E186E020E196E0A
:10109200000E1A6E690E1B6E100E1C6EB8EC0CF070
:1010A2004C0E1D6E000E1E6E010E1F6E100E206E77
:1010B200090E216E100E226E050E236EF7EC0BF058
:1010C2004C0E1D6E000E1E6E010E1F6E110E206E56
:1010D200010E216E100E226E060E236EF7EC0BF03F
:1010E2004C0E1D6E000E1E6E040E1F6E010E206E43
:1010F200290E216E100E226E020E236EF7EC0BF0FB
:101102004C0E1D6E000E1E6E030E1F6E010E206E23
:10111200210E216E100E226E030E236EF7EC0BF0E1
:101122004C0E1D6E000E1E6E020E1F6E010E206E04
:10113200190E216E100E226E040E236EF7EC0BF0C8
:101142004C0E1D6E000E1E6E010E1F6E010E206EE5
:10115200110E216E100E226E070E236EF7EC0BF0AD
:101162004C0E1D6E000E1E6E010E1F6E120E206EB4
:10117200310E216E100E226E010E236EF7EC0BF073
:101182004C0E1D6E000E1E6E010E1F6E130E206E93
:10119200610E216E100E226E000E236EF7EC0BF024
:1011A200030E296E8A0E286E560EE82EFED7282EC2
:1011B200FCD7292EFAD74C0E1D6E000E1E6E010EA4
:1011C2001F6E130E206E590E216E100E226E000E2F
:1011D200236EF7EC0BF0030E296E8A0E286E560E64
:1011E200E82EFED7282EFCD7292EFAD74C0E1D6EDC
:1011F200000E1E6E010E1F6E130E206E510E216E1A
:10120200100E226E000E236EF7EC0BF0030E296E09
:101212008A0E286E560EE82EFED7282EFCD7292ECF
:10122200FAD74C0E1D6E000E1E6E010E1F6E130EAF
:10123200206E490E216E100E226E000E236EF7EC08
:101242000BF0030E296E8A0E286E560EE82EFED77C
:10125200282EFCD7292EFAD74C0E1D6E000E1E6EBC
:10126200010E1F6E130E206E410E216E100E226EA5
:10127200000E236EF7EC0BF0030E296E8A0E286E19
:10128200560EE82EFED7282EFCD7292EFAD74C0E62
:101292001D6E000E1E6E010E1F6E130E206E390E95
:1012A200216E100E226E000E236EF7EC0BF0030E71
:1012B200296E8A0E286E560EE82EFED7282EFCD7EF
:1012C200292EFAD7C1EF08F000EF00F020EE01F06E
:1012D2001150D9261250DA22DF50070B016E000E90
:1012E200026E11C0D9FF12C0DAFFDF503F0BECECE7
:1012F2000AF020EE01F01150D9261250DA22DF3026
:10130200E832E832070B016E000E026E11C0D9FFFF
:1013120012C0DAFFDF503F0BECEC0AF020EE02F0D5
:101322001150D9261250DA22DF50070B016E000E3F
:10133200026E11C0D9FF12C0DAFFDF503F0BECEC96
:101342000AF020EE02F01150D9261250DA22DF30D4
:10135200E832E832070B016E000E026E11C0D9FFAF
:1013620012C0DAFFDF503F0BECEC0AF020EE03F084
:101372001150D9261250DA22DF50070B016E000EEF
:10138200026E11C0D9FF12C0DAFFDF503F0BECEC46
:101392000AF020EE03F01150D9261250DA22DF3083
:1013A200E832E832070B016E000E026E11C0D9FF5F
:1013B20012C0DAFFDF503F0BECEC0AF020EE01F036
:1013C2001150D9261250DA22DF50070B016E000E9F
:1013D200026E11C0D9FF12C0DAFFDF503F0B88EC5A
:1013E2000AF020EE01F01150D9261250DA22DF3035
:1013F200E832E832070B016E000E026E11C0D9FF0F
:1014020012C0DAFFDF503F0B88EC0AF020EE02F048
:101412001150D9261250DA22DF50070B016E000E4E
:10142200026E11C0D9FF12C0DAFFDF503F0B88EC09
:101432000AF020EE02F01150D9261250DA22DF30E3
:10144200E832E832070B016E000E026E11C0D9FFBE
:1014520012C0DAFFDF503F0B88EC0AF020EE03F0F7
:101462001150D9261250DA22DF50070B016E000EFE
:10147200026E11C0D9FF12C0DAFFDF503F0B88ECB9
:101482000AF020EE03F01150D9261250DA22DF3092
:10149200E832E832070B016E000E026E11C0D9FF6E
:1014A20012C0DAFFDF503F0B88EC0AF011C00DF0DA
:1014B20012C00EF0010E0F6E79EC0CF011C00DF09F
:1014C20012C00EF0020E0F6E79EC0CF011C00DF08E
:1014D20012C00EF00C0E0F6E79EC0CF011C00DF074
:1014E20012C00EF01C0E0F6E79EC0CF011C00DF054
:1014F20012C00EF0280E0F6E79EC0CF011C00DF038
:1015020012C00EF0800E0F6E79EC0CF01200096E14
:10151200080E01608FEF0AF091EF0AF0EBEF0AF08C
:10152200D6EF0AF001C003F0010E046E032A9CEF0D
:101532000AF0D8900436032E9AEF0AF00450FF0AFC
:10154200056E0950020D340EF324D96E000EF420FC
:10155200DA6EDECF06F0DDCF07F006C0D9FF07C096
:10156200DAFF0550DF16EBEF0AF001C003F0010EBF
:10157200046E032ABFEF0AF0D8900436032EBDEFA3
:101582000AF00950020D340EF324D96E000EF42035
:10159200DA6EDECF05F0DDCF06F005C0D9FF06C05A
:1015A200DAFF0450DF12EBEF0AF00250036E046A16
:1015B2000450000AD8B4E0EF0AF0EBEF0AF003504F
:1015C200000AD8B493EF0AF0010AD8B4B6EF0AF0D1
:1015D200EBEF0AF01200096E080E0160F3EF0AF059
:1015E200F5EF0AF04FEF0BF03AEF0BF001C003F00A
:1015F200010E046E032A00EF0BF0D8900436032E7E
:10160200FEEF0AF00450FF0A056E0950020D3E0E6D
:10161200F324D96E000EF420DA6EDECF06F0DDCFB1
:1016220007F006C0D9FF07C0DAFF0550DF164FEFFB
:101632000BF001C003F0010E046E032A23EF0BF03E
:10164200D8900436032E21EF0BF00950020D3E0E06
:10165200F324D96E000EF420DA6EDECF05F0DDCF72
:1016620006F005C0D9FF06C0DAFF0450DF124FEFC3
:101672000BF00250036E046A0450000AD8B444EF1F
:101682000BF04FEF0BF00350000AD8B4F7EF0AF05B
:10169200010AD8B41AEF0BF04FEF0BF0120020EE54
:1016A20001F00A50D9260B50DA22DF50070B016EE7
:1016B2000C50010B026E0AC0D9FF0BC0DAFFDF50DB
:1016C2003F0B88EC0AF020EE01F00A50D9260B50AD
:1016D200DA22DF30E832E832070B016ED8900C30A4
:1016E200010B026E0AC0D9FF0BC0DAFFDF503F0BBD
:1016F20088EC0AF020EE02F00A50D9260B50DA22CA
:10170200DF50070B016E0C40E8423F0B010B026EEB
:101712000AC0D9FF0BC0DAFFDF503F0B88EC0AF09A
:1017220020EE02F00A50D9260B50DA22DF30E832DE
:10173200E832070B016E0C38E8461F0B010B026EF4
:101742000AC0D9FF0BC0DAFFDF503F0B88EC0AF06A
:1017520012001406D9EF0BF011C00DF012C00EF0FA
:101762001450800F0F6E79EC0CF0F6EF0BF011C0F5
:101772000DF012C00EF01450C00F0F6E79EC0CF089
:10178200F6EF0BF011C00DF012C00EF01450940FD2
:101792000F6E79EC0CF0F6EF0BF011C00DF012C0E9
:1017A2000EF01450D40F0F6E79EC0CF0F6EF0BF034
:1017B2001350156E166A1650000AD8B4E3EF0BF0F8
:1017C200F6EF0BF01550010AD8B4ADEF0BF0030A97
:1017D200D8B4B8EF0BF0010AD8B4C3EF0BF0070A84
:1017E200D8B4CEEF0BF0F6EF0BF01200000E276E1E
:1017F2001D501E10D8A400EF0CF002EF0CF004EF05
:101802000CF039EF0CF01DC00DF01EC00EF023508D
:10181200080DF350400F0F6E79EC0CF0000E276E9E
:101822001DC00DF01EC00EF027502124246E000EA4
:101832002220256E24C0F6FF25C0F7FF0800F5CF51
:101842000FF03AEC0CF0272A070E27642BEF0CF06E
:101852002DEF0CF011EF0CF01DC017F01EC018F0A8
:101862001FC019F020C01AF023C01BF01FEC0DF0AE
:1018720012000D500E10D8A441EF0CF043EF0CF003
:1018820045EF0CF078EF0CF020EE03F00D50D92666
:101892000E50DA22DF30E832E832070B016E010E19
:1018A200026E0DC0D9FF0EC0DAFFDF503F0B88EC8D
:1018B2000AF00DC00AF00EC00BF00F380F0B0C6EC1
:1018C20050EC0BF00DC00AF00EC00BF0F4EC0CF073
:1018D2000DC00AF00EC00BF00F500F0B0C6E50EC47
:1018E2000BF00DC00AF00EC00BF0F4EC0CF012007D
:1018F2000D500E10D8A480EF0CF082EF0CF084EFA4
:101902000CF0B7EF0CF020EE03F00D50D9260E507C
:10191200DA22DF30E832E832070B016E000E026E87
:101922000DC0D9FF0EC0DAFFDF503F0B88EC0AF082
:101932000DC00AF00EC00BF00F380F0B0C6E50ECFE
:101942000BF00DC00AF00EC00BF0F4EC0CF00DC061
:101952000AF00EC00BF00F500F0B0C6E50EC0BF098
:101962000DC00AF00EC00BF0F4EC0CF01200175090
:101972001810D8A4BFEF0CF0C1EF0CF0C3EF0CF0BD
:10198200F3EF0CF017C011F018C012F019C013F0E9
:101992001AC014F0AAEC0BF0E5EF0CF017C00DF032
:1019A20018C00EF01BC0F6FF1CC0F7FF0800F5CFF1
:1019B2000FF03AEC0CF01B4A1C2A030E1D6E980E17
:1019C200E82EFED71D2EFCD71BC0F6FF1CC0F7FF6A
:1019D2000800F5500009D8A4F1EF0CF0F3EF0CF079
:1019E200CFEF0CF0120020EE03F00A50D9260B5074
:1019F200DA22DF50070B016E010E026E0AC0D9FF18
:101A02000BC0DAFFDF503F0B88EC0AF0850EE82EA0
:101A1200FED700F020EE03F00A50D9260B50DA224E
:101A2200DF50070B016E000E026E0AC0D9FF0BC019
:101A3200DAFFDF503F0B88EC0AF012001750181043
:101A4200D8A426EF0DF028EF0DF02AEF0DF03CEFB1
:101A52000DF017C011F018C012F019C013F01AC01F
:101A620014F0AAEC0BF017C00DF018C00EF01BC05A
:101A72000FF03AEC0CF01200A40EF66E1A0EF76E8E
:101A8200000EF86E00EE2AF010EE26F00900F5CFF7
:101A9200EEFFE550E150FAE1000EF86E000141EF71
:101AA20008F0800F810F820F830F840F890F8A0F36
:101AB2008B0F8C0F8D0F920F930F940F950F960F24
:101AC20003081A2502081A254C0E136E000E146E16
:101AD20072EC0DF0480E136E000E146E72EC0DF0E7
:101AE200120013C011F014C012F067EC09F01200DA
:020000040020DA
:08000000FFFFFFFFFFFFFFFF00
:020000040030CA
:0E000000FF071F1FFF8B85FF0FC00FE00F4093
:00000001FF
