:020000040000FA
:04000000CCEF7DF0D4
:10FB78003F0E546E000E556E1F0E566E000E576ED9
:10FB8800080E586E98EC7FF0BCEF7DF000EF00F0A7
:10FB9800C20EF66EFB0EF76E000EF86E00EE01F068
:10FBA80010EE46F00900F5CFEEFFE550E150FAE11E
:10FBB800000EF86E0001BCEF7DF0800F810F820F00
:10FBC800830F840F890F8A0F8B0F8C0F8D0F920F65
:10FBD800930F940F950F960F01000000000000018D
:10FBE8000101000000000101010101000001010103
:10FBF8000101010101010101021222324252627225
:10FC080050505110D8B40BEF7EF00DEF7EF043EF5B
:10FC18007EF050C0D9FF51C0DAFFDF500F0B526E93
:10FC2800050E52601AEF7EF01CEF7EF043EF7EF077
:10FC380050C0D9FF51C0DAFFDF38070B526E070EEC
:10FC4800526429EF7EF02BEF7EF02DEF7EF043EF2C
:10FC58007EF050C0D9FF51C0DAFFDF38070B476E7E
:10FC6800000E486E50C0D9FF51C0DAFFDF500F0BAD
:10FC780034EC7FF050C0D9FF51C0DAFFDF9E12008C
:10FC880050505110D8B44BEF7EF04DEF7EF083EF1B
:10FC98007EF050C0D9FF51C0DAFFDF500F0B526E13
:10FCA800050E52605AEF7EF05CEF7EF083EF7EF037
:10FCB80050C0D9FF51C0DAFFDF38070B526E070E6C
:10FCC800526469EF7EF06BEF7EF06DEF7EF083EFAC
:10FCD8007EF050C0D9FF51C0DAFFDF38070B476EFE
:10FCE800010E486E50C0D9FF51C0DAFFDF500F0B2C
:10FCF80034EC7FF050C0D9FF51C0DAFFDF8E12001C
:10FD080050505110D8B48BEF7EF08DEF7EF0CFEFCE
:10FD18007EF050C0D9FF51C0DAFFDF500F0B526E92
:10FD2800050E52609AEF7EF09CEF7EF0CFEF7EF0EA
:10FD380050C0D9FF51C0DAFFDF38070B526E070EEB
:10FD48005264A9EF7EF0ABEF7EF0ADEF7EF0CFEF1F
:10FD58007EF050C0D9FF51C0DAFFDF38070B476E7D
:10FD6800000E486E50C0D9FF51C0DAFFDF500F0BAC
:10FD7800D0EC7EF050C0D9FF51C0DAFFDF38070B56
:10FD8800476E000E486E50C0D9FF51C0DAFFDF50F1
:10FD98000F0B34EC7FF012004F6E080E4760D7EF60
:10FDA8007EF0D9EF7EF033EF7FF01EEF7FF047C093
:10FDB80049F0010E4A6E492AE4EF7EF0D8904A369F
:10FDC800492EE2EF7EF04A50FF0A4B6E4F50020D6B
:10FDD800150EF324D96E000EF420DA6EDECF4CF047
:10FDE800DDCF4DF04CC0D9FF4DC0DAFF4B50DF16C8
:10FDF80033EF7FF047C049F0010E4A6E492A07EFFA
:10FE08007FF0D8904A36492E05EF7FF04F50020D0B
:10FE1800150EF324D96E000EF420DA6EDECF4BF007
:10FE2800DDCF4CF04BC0D9FF4CC0DAFF4A50DF128F
:10FE380033EF7FF04850496E4A6A4A50000AD8B4F6
:10FE480028EF7FF033EF7FF04950000AD8B4DBEF9A
:10FE58007EF0010AD8B4FEEF7EF033EF7FF0120097
:10FE68004F6E080E47603BEF7FF03DEF7FF097EF56
:10FE78007FF082EF7FF047C049F0010E4A6E492AB1
:10FE880048EF7FF0D8904A36492E46EF7FF04A5027
:10FE9800FF0A4B6E4F50020D0B0EF324D96E000E65
:10FEA800F420DA6EDECF4CF0DDCF4DF04CC0D9FF38
:10FEB8004DC0DAFF4B50DF1697EF7FF047C049F08F
:10FEC800010E4A6E492A6BEF7FF0D8904A36492EC8
:10FED80069EF7FF04F50020D0B0EF324D96E000E20
:10FEE800F420DA6EDECF4BF0DDCF4CF04BC0D9FFFB
:10FEF8004CC0DAFF4A50DF1297EF7FF04850496E46
:10FF08004A6A4A50000AD8B48CEF7FF097EF7FF026
:10FF18004950000AD8B43FEF7FF0010AD8B462EF25
:10FF28007FF097EF7FF01200000E5C6E000E5C6EA3
:10FF3800A7EF7FF05C505424506E000E5520516E90
:10FF480084EC7EF05C2A58505C5CD8A0AEEF7FF061
:10FF5800B0EF7FF09EEF7FF0000E5C6EF6EF7FF063
:10FF6800000E5D6E5C50080D56C059F057C05AF02F
:10FF7800F3505926F4505A225D505924D96E000E78
:10FF88005A20DA6EDE04D8A4CCEF7FF0CEEF7FF0F3
:10FF9800D8EF7FF05D505424506E000E5520516EFE
:10FFA80044EC7EF0E0EF7FF05D505424506E000E7C
:10FFB8005520516E04EC7EF05D2A070E5D64E7EF74
:10FFC8007FF0E9EF7FF0B6EF7FF0020E5A6E860EF3
:10FFD800596E990EE82EFED7592EFCD75A2EFAD70D
:10FFE80000F05C2A58505C5CD8A0FDEF7FF0FFEF72
:08FFF8007FF0B4EF7FF012006E
:020000040020DA
:08000000FFFFFFFFFFFFFFFF00
:020000040030CA
:0E000000FF071F1FFF8B85FF0FC00FE00F4093
:00000001FF
